:100000007BC088C087C086C085C084C083C082C0D2
:1000100081C080C07FC07EC07DC07CC07BC07AC0F4
:1000200079C078C077C0C0F9A4B0999282F8809066
:100030008883C6A1868E7F87B86FD3825B849F300A
:100040004F59BE37D44D0975C61D4B7D489BD836D8
:10005000583D94C7C598CF92C31C0BF6F1FF671F9C
:10006000B39C654E742B85CC69192E665EE4A5227F
:1000700032643F3E5A97B652DB99071E9370382878
:100080009EF4D5534A7B7CB5BB3AE67E080AC96329
:1000900021EDBADEFC622FADAB9D2A8BE5B7819ACC
:1000A0004CBC72519525F856E9D0E23BA9042D6A63
:1000B000ACC8918A496E18BDA48E7ADF44235431AE
:1000C0007F5F2C3CEE5DFEF0C00247F31B11E14662
:1000D000EBB95545500E96D177FAD9CB8380D241F2
:1000E000DD5CD79005EA24A3BF57A8AF120F86FBAB
:1000F000CA00B0D6C2AA260011241FBECFEDCDBFC4
:1001000010E0A0E6B0E001C01D92A136B107E1F712
:10011000DBD02DC175CF282F80B3822381F48CE4EE
:100120009DE10197F1F780B3822349F480B38223E4
:10013000E9F38CE49DE10197F1F781E0089580E017
:100140000895EF92FF920F931F9381E090E0F9D012
:10015000F82E82E090E0F5D0082F83E090E0F1D017
:10016000182F18BA88EB9BE029E130E0F9013197AC
:10017000F1F70197D9F78FEF88BB88EB9BE029E176
:1001800030E0F9013197F1F70197D9F718BA88EB08
:100190009BE029E130E0F9013197F1F70197D9F7B8
:1001A0008FEF88BB88EB9BE029E130E0F9013197C4
:1001B000F1F70197D9F718BA88EB9BE029E130E015
:1001C000F9013197F1F70197D9F78FEF88BB88EBE9
:1001D0009BE029E130E0F9013197F1F70197D9F778
:1001E00018BA88EB9BE029E130E0F9013197F1F78B
:1001F0000197D9F78FEF88BBEE2482E08CDF88234C
:1002000011F0E39417C0EE20A9F484E084DF882382
:1002100021F01F5F163009F415E081E07CDF8823B0
:1002200019F0115009F411E0E12FF0E0EA5DFF4F01
:10023000E49133C081E0E816C1F484E06CDF8823E8
:1002400031F0F39486E0F81611F485E0F82E81E0A1
:1002500062DF882321F0FA9411F4FF24F394EF2D48
:10026000F0E0EA5DFF4FE49118C082E0E816B9F4CF
:1002700084E051DF882321F00F5F003109F40FE0A3
:1002800081E049DF882321F00150023009F403E0C6
:10029000E02FF0E0EA5DFF4FE491E8BBAECF82E0F3
:1002A0008E1508F0AACF81E090E06F2D52D082E049
:1002B00090E0602F4ED083E090E0612F4AD01F91F4
:1002C0000F91FF90EF900895CF93DF938FEF87BB4F
:1002D00081B3886381BB81B3887F81BB82B3876030
:1002E00082BB82E018DF81112CDF8FEF88BB20E119
:1002F00037E2C9E1D0E005C0CE010197F1F7215006
:10030000304021153105C1F786E290E01AD088BB54
:1003100080E197E2FE013197F1F70197D9F782E08A
:1003200090E00FD088BB80E197E2FE013197F1F7B2
:100330000197D9F783E090E004D088BB20E137E251
:10034000DBCFE199FECF1FBA8EBBE09A99278DB320
:100350000895262FE199FECF1CBA1FBA8EBB2DBB84
:100360000FB6F894E29AE19A0FBE01960895F894B8
:02037000FFCFBD
:00000001FF
