:100000007BC093C092C091C090C08FC0D5C08DC03E
:100010008CC08BC08AC089C088C087C086C085C09C
:1000200084C083C082C0C0F9A4B0999282F8809045
:100030008883C6A1868E7F87B86FD3825B849F300A
:100040004F59BE37D44D0975C61D4B7D489BD836D8
:10005000583D94C7C598CF92C31C0BF6F1FF671F9C
:10006000B39C654E742B85CC69192E665EE4A5227F
:1000700032643F3E5A97B652DB99071E9370382878
:100080009EF4D5534A7B7CB5BB3AE67E080AC96329
:1000900021EDBADEFC622FADAB9D2A8BE5B7819ACC
:1000A0004CBC72519525F856E9D0E23BA9042D6A63
:1000B000ACC8918A496E18BDA48E7ADF44235431AE
:1000C0007F5F2C3CEE5DFEF0C00247F31B11E14662
:1000D000EBB95545500E96D177FAD9CB8380D241F2
:1000E000DD5CD79005EA24A3BF57A8AF120F86FBAB
:1000F000CA00B0D6C2AA260011241FBECFEDCDBFC4
:1001000010E0A4E6B0E001C01D92A536B107E1F70A
:1001100010E0A0E6B0E0E2ECF6E002C005900D923F
:10012000A436B107D9F7C4D0CAC26ACF282F80B38A
:10013000822381F48CE49DE10197F1F780B382235F
:1001400049F480B38223E9F38CE49DE10197F1F750
:1001500081E0089580E008950F931F93CF93DF937C
:10016000EC01062F142F84E0E1DF882359F0288169
:100170002F5F288330E0812F90E001962817390700
:1001800009F4188381E0D2DF882359F028812150B7
:10019000288330E0802F90E001972817390709F471
:1001A0000883E881F0E0EA5DFF4FE491E8BBDF916E
:1001B000CF911F910F9108951F920F920FB60F923A
:1001C00011248F938DE982BF81E0809364008F9129
:1001D0000F900FBE0F901F901895AF92BF92CF92C5
:1001E000DF92EF92FF921F93DF93CF9300D00F9295
:1001F000CDB7DEB781E090E0BFD1898382E090E0A7
:10020000BBD18A8383E090E0B7D1382F18BA26E0BB
:1002100049E150E088B3809588BB88EB9BE0FA0108
:100220003197F1F70197D9F72150A1F73B8310E0FF
:100230005E010894A11CB11C93E0C92ED12CCC0EF8
:10024000DD1E82E0E82EF12CEC0EFD1E82E06EDF5A
:10025000882311F01F5F04C0112311F4C50109C0E8
:10026000113021F4C70163E04FE005C0123029F4DA
:10027000C60161E045E070DFE9CF133038F381E07B
:1002800090E0698181D182E090E06A817DD183E054
:1002900090E06B8179D10F900F900F90CF91DF910B
:1002A0001F91FF90EF90DF90CF90BF90AF90089597
:1002B000BF92CF92DF92EF92FF920F931F93DF9343
:1002C000CF93CDB7DEB72F970FB6F894DEBF0FBE32
:1002D000CDBF8FEF87BB88BB81B3886381BB81B300
:1002E000887F81BB82B3876082BB82E01FDF811180
:1002F00074DF83B7856083BF89B7826089BF8DE96A
:1003000082BF789481E090E037D1C82E82E090E0FF
:1003100033D1D82E83E090E02FD1082F10E07E015A
:100320000894E11CF11CBB24B394809164008823E1
:10033000E1F3812F90E065E070E0B3D0F701E80FC2
:10034000F91F8481882309F43FC0112311F4C09A56
:1003500007C0113011F4C39A03C0123009F4C69AD1
:10036000812F90E065E070E09CD0F701E80FF91F65
:1003700021812F5F812F90E065E070E092D0F7013E
:10038000E80FF91F2183201709F083C0812F90E027
:1003900065E070E086D0F701E80FF91F1482DDD028
:1003A000282F812F90E065E070E07BD0F701E80F07
:1003B000F91F2083812F90E065E070E072D0F70193
:1003C000E80FF91F118265C0112311F4C09807C00E
:1003D000113011F4C39803C0123009F4C698812F6C
:1003E00090E065E070E05DD0F701E80FF91F8081D3
:1003F00080FF28C0812F90E065E070E052D0F701C7
:10040000E80FF91F23812F5F812F90E065E070E0F6
:1004100048D0F701E80FF91F23832D15D0F1812F64
:1004200090E065E070E03DD0F701E80FF91FB4827D
:10043000812F90E065E070E034D0F701E80FF91FFC
:10044000138227C0812F90E065E070E02AD0F70189
:10045000E80FF91F22812F5F812F90E065E070E0A7
:1004600020D0F701E80FF91F22832C1590F0812F7F
:1004700090E065E070E015D0F701E80FF91FB48255
:10048000812F90E065E070E00CD0F701E80FF91FD4
:1004900012821F5F133009F048CF1092640010E001
:1004A00044CF5527002480FF02C0060E571F660F59
:1004B000771F6115710521F096958795009799F73B
:1004C000952F802D0895A0E0B0E0E8E6F2E0A6C008
:1004D000EC01A880B980CA80DB80A114B104C104FA
:1004E000D10441F484E2A82E89EDB82E8BE5C82E04
:1004F00087E0D82EC601B5012DE133EF41E050E091
:100500006AD027EA31E440E050E04CD07B018C0116
:10051000C601B5012DE133EF41E050E05CD0CA01E6
:10052000B9012CEE34EF4FEF5FEF3CD06E0D7F1D25
:10053000801F911F97FF04C0615070408040904819
:10054000688379838A839B839B013F77C901CDB7F9
:10055000DEB7EAE07FC0B7DF089580E690E0B3DF62
:100560000895A0E0B0E08093600090936100A093B4
:100570006200B09363000895E199FECF1FBA8EBB6D
:10058000E09A99278DB30895262FE199FECF1CBAE2
:100590001FBA8EBB2DBB0FB6F894E29AE19A0FBE3C
:1005A00001960895FF27EE27BB27AA2760FF04C006
:1005B000A20FB31FE41FF51F220F331F441F551F47
:1005C000969587957795679589F70097760771F7E0
:1005D000CF01BD01089597FB092E05260ED057FDCA
:1005E00004D04BD00AD0001C38F45095409530957B
:1005F00021953F4F4F4F5F4F0895F6F790958095A7
:10060000709561957F4F8F4F9F4F08952F923F9226
:100610004F925F926F927F928F929F92AF92BF9212
:10062000CF92DF92EF92FF920F931F93CF93DF93BE
:10063000CDB7DEB7CA1BDB0B0FB6F894DEBF0FBE1B
:10064000CDBF09942A88398848885F846E847D8468
:100650008C849B84AA84B984C884DF80EE80FD806A
:100660000C811B81AA81B981CE0FD11D0FB6F894E0
:10067000DEBF0FBECDBFED010895A1E21A2EAA1B69
:10068000BB1BFD010DC0AA1FBB1FEE1FFF1FA21742
:10069000B307E407F50720F0A21BB30BE40BF50B3F
:1006A000661F771F881F991F1A9469F760957095C8
:1006B000809590959B01AC01BD01CF010895F89400
:0206C000FFCF6A
:0406C2000100000033
:00000001FF
